:020000040800F2
:1000000000000220810D0008090D00080F0D0008F6
:10001000150D00081B0D0008210D00080000000050
:10002000000000000000000000000000270D000894
:10003000350D000800000000430D0008510D0008B8
:10004000D10D0008D10D0008D10D0008D10D000818
:10005000D10D0008D10D0008D10D0008D10D000808
:10006000D10D0008D10D0008D10D0008D10D0008F8
:10007000D10D0008D10D0008D10D0008D10D0008E8
:10008000D10D0008D10D0008D10D0008D10D0008D8
:10009000D10D0008D10D0008D10D0008D10D0008C8
:1000A000D10D0008D10D0008D10D0008D10D0008B8
:1000B000D10D0008D10D0008D10D0008D10D0008A8
:1000C000D10D0008D10D0008D10D0008D10D000898
:1000D000D10D0008D10D0008D10D0008D10D000888
:1000E000D10D0008D10D0008D10D0008D10D000878
:1000F000D10D0008D10D0008D10D0008D10D000868
:10010000D10D0008D10D0008D10D0008D10D000857
:10011000D10D0008D10D0008D10D0008D10D000847
:10012000D10D0008D10D0008D10D0008D10D000837
:10013000D10D0008D10D0008D10D0008D10D000827
:10014000D10D0008D10D0008D10D0008D10D000817
:10015000D10D0008D10D0008D10D0008D10D000807
:10016000D10D0008D10D0008D10D0008D10D0008F7
:10017000D10D0008D10D0008D10D000800000000CD
:08018000D10D0008D10D0008AB
:1001880010B5054C237833B9044B13B10448AFF3C9
:1001980000800123237010BD8801002000000000AA
:1001A8007092000808B5034B1BB103490348AFF32D
:1001B800008008BD000000008C010020709200083B
:1001C80053B94AB9002908BF00281CBF4FF0FF31B6
:1001D8004FF0FF3000F074B9ADF1080C6DE904CEB2
:1001E80000F006F8DDF804E0DDE9022304B070470A
:1001F8002DE9F047089D04468E46002B4DD18A42D2
:10020800944669D9B2FA82F252B101FA02F3C2F104
:10021800200120FA01F10CFA02FC41EA030E944095
:100228004FEA1C48210CBEFBF8F61FFA8CF708FBB6
:1002380016E341EA034306FB07F199420AD91CEB8E
:10024800030306F1FF3080F01F81994240F21C81C0
:10025800023E63445B1AA4B2B3FBF8F008FB103308
:1002680044EA034400FB07F7A7420AD91CEB04043D
:1002780000F1FF3380F00A81A74240F2078164440D
:10028800023840EA0640E41B00261DB1D440002392
:10029800C5E900433146BDE8F0878B4209D9002DF6
:1002A80000F0EF800026C5E9000130463146BDE880
:1002B800F087B3FA83F6002E4AD18B4202D38242EA
:1002C80000F2F980841A61EB030301209E46002D99
:1002D800E0D0C5E9004EDDE702B9FFDEB2FA82F2EE
:1002E800002A40F09280A1EB0C014FEA1C471FFA4C
:1002F8008CFE0126200CB1FBF7F307FB131140EA33
:1003080001410EFB03F0884208D91CEB010103F1FF
:10031800FF3802D2884200F2CB804346091AA4B2C1
:10032800B1FBF7F007FB101144EA01440EFB00FE95
:10033800A64508D91CEB040400F1FF3102D2A645FA
:1003480000F2BB800846A4EB0E0440EA03409CE799
:10035800C6F12007B34022FA07FC4CEA030C20FA46
:1003680007F401FA06F31C43F9404FEA1C4900FA66
:1003780006F3B1FBF9F8200C1FFA8CFE09FB1811E3
:1003880040EA014108FB0EF0884202FA06F20BD956
:100398001CEB010108F1FF3A80F08880884240F2A6
:1003A8008580A8F102086144091AA4B2B1FBF9F0EA
:1003B80009FB101144EA014100FB0EFE8E4508D9E5
:1003C8001CEB010100F1FF346CD28E456AD902386A
:1003D800614440EA0840A0FB0294A1EB0E01A1424F
:1003E800C846A64656D353D05DB1B3EB080261EBBD
:1003F8000E0101FA07F722FA06F3F1401F43C5E997
:10040800007100263146BDE8F087C2F12003D840CC
:100418000CFA02FC21FA03F3914001434FEA1C470E
:100428001FFA8CFEB3FBF7F007FB10360B0C43EA00
:10043800064300FB0EF69E4204FA02F408D91CEBB0
:10044800030300F1FF382FD29E422DD902386344AE
:100458009B1B89B2B3FBF7F607FB163341EA03414E
:1004680006FB0EF38B4208D91CEB010106F1FF389D
:1004780016D28B4214D9023E6144C91A46EA004694
:1004880038E72E46284605E70646E3E61846F8E626
:100498004B45A9D2B9EB020864EB0C0E0138A3E76F
:1004A8004646EAE7204694E74046D1E7D0467BE750
:1004B800023B614432E7304609E76444023842E7C8
:1004C800704700BF80B500AF07F0BAFB00BF80BD22
:1004D80080B500AF07F0C4FB00BF80BD80B483B017
:1004E80000AF786039607B681A693B6813403A68E6
:1004F8009A420CBF01230023DBB218460C37BD46D5
:100508005DF8047B704780B483B000AF78603960D1
:100518007B683A689A6100BF0C37BD465DF8047B7A
:10052800704780B483B000AF786039603B681A04C4
:100538007B689A6100BF0C37BD465DF8047B704745
:1005480080B485B000AF7860084B1A6B07497B68A8
:1005580013430B63054B1A6B7B681340FB60FB6806
:1005680000BF1437BD465DF8047B70470038024071
:1005780080B500AF01210648FFF7B0FF0346002B06
:1005880001D0002302E000F057F80123184680BD8F
:100598000000024080B588B000AF0346FB71164BDF
:1005A8001B78002B16D10420FFF7CAFF4FF4006315
:1005B800BB600123FB6000233B6101237B610023B7
:1005C800BB6107F1080319460C4802F05AFF0A4BB1
:1005D80001221A70FB79012B05D14FF400610748FD
:1005E800FFF79FFF04E04FF400610448FFF78BFF1B
:1005F80000BF2037BD4680BDA4010020000802408E
:1006080080B400AF00BFBD465DF8047B704780B47E
:1006180000AF00BFBD465DF8047B704780B483B06F
:1006280000AF786039607B683A689A6100BF0C3720
:10063800BD465DF8047B704780B500AF4FF480512C
:100648000248FFF7EBFF00BF80BD00BF000C02406F
:1006580080B400AF054B1B68044A43F48033136031
:1006680000BFBD465DF8047B704700BF00380240FC
:1006780080B400AF074B1B6803F40033B3F5003FA9
:100688000CBF01230023DBB21846BD465DF8047B8E
:10069800704700BF0038024080B483B000AF786074
:1006A800064B9B6823F0030204497B6813438B6065
:1006B80000BF0C37BD465DF8047B70470038024028
:1006C80080B400AF044B9B6803F00C031846BD468A
:1006D8005DF8047B704700BF0038024080B483B0E7
:1006E80000AF7860064B9B6823F0F00204497B68F2
:1006F80013438B6000BF0C37BD465DF8047B704721
:100708000038024080B483B000AF7860064B9B6825
:1007180023F4E05204497B6813438B6000BF0C3715
:10072800BD465DF8047B70470038024080B483B052
:1007380000AF7860064B9B6823F4604204497B68ED
:1007480013438B6000BF0C37BD465DF8047B7047D0
:100758000038024080B400AF054B1B68044A43F0E0
:100768008073136000BFBD465DF8047B704700BF0F
:100778000038024080B400AF074B1B6803F00073D9
:10078800B3F1007F0CBF01230023DBB21846BD463E
:100798005DF8047B704700BF0038024080B485B024
:1007A80000AFF860B9607A603B600D4B5A680D4B3A
:1007B8001340F968BA6811437A6892010A430849F4
:1007C80013434B60064B5B6823F4403204493B6893
:1007D80013434B6000BF1437BD465DF8047B704778
:1007E800003802400080BFFF80B485B000AFF860D9
:1007F800B9607A603B600A4B5A680A4B1340F96843
:10080800BA6811437A68920111433A680A43044965
:1008180013434B6000BF1437BD465DF8047B704737
:10082800003802400080BFF080B485B000AF786027
:10083800084B1A6B07497B6813430B63054B1A6B0C
:100848007B681340FB60FB6800BF1437BD465DF84A
:10085800047B70470038024080B485B000AF7860F0
:10086800084B1A6C07497B6813430B64054B1A6CD9
:100878007B681340FB60FB6800BF1437BD465DF81A
:10088800047B70470038024080B483B000AF7860C2
:10089800064B1B6823F0070204497B6813430B606F
:1008A80000BF0C37BD465DF8047B7047003C024032
:1008B80080B400AF044B1B6803F007031846BD461D
:1008C8005DF8047B704700BF003C024080B483B0F1
:1008D80000AF7860064B1B6823F4804204497B68AC
:1008E80013430B6000BF0C37BD465DF8047B7047AF
:1008F8000070004080B400AF074B5B6803F480438E
:10090800B3F5804F0CBF01230023DBB21846BD4668
:100918005DF8047B704700BF0070004080B483B06E
:1009280000AF78607B68DB6843F400527B68DA606C
:1009380000BF0C37BD465DF8047B704780B483B0B8
:1009480000AF78607B681B6923F490427B681A616A
:100958007B685B6923F02A027B685A6100BF0C3709
:10096800BD465DF8047B704780B483B000AF786003
:1009780039603B681A047B689A6100BF0C37BD4632
:100988005DF8047B704780B500AF00F01FFA00F0F7
:1009980009F800F0AFF800F05DF8FFF793FDFFF7F6
:1009A80097FDFCE780B500AF0520FFF76DFF00BF9E
:1009B800FFF77EFF0346052BFAD14FF48040FFF77F
:1009C80085FF00BFFFF796FF0346002BFAD0FFF71D
:1009D8003FFE00BFFFF74CFE0346012BFAD1002370
:1009E800A82204214FF48000FFF7D8FE4FF0E063FF
:1009F800A82204214FF48000FFF7F6FEFFF7AAFEB5
:100A080000BFFFF7B7FE0346012BFAD10020FFF71E
:100A180065FE4FF4A050FFF775FE4FF40040FFF756
:100A280085FE0220FFF738FE00BFFFF749FE0346A8
:100A3800082BFAD1064804F055FE0F2000F01CFAE6
:100A48000346002B01D000F0C5F800BF80BD00BFF1
:100A5800007A030A80B58EB000AF07F11C030022AC
:100A68001A605A609A60DA601A615A619A613B1D8D
:100A780000221A605A609A60DA601A615A614FF46B
:100A88000030FFF7E9FE0120FFF7CEFE0C237B6064
:100A98000223BB600323FB6000233B6100237B61CF
:100AA8000723BB613B1D1946104802F0EAFC4FF4CE
:100AB800E133FB6100233B6200237B620023BB62BE
:100AC8000C23FB6200233B6300237B6307F11C03B9
:100AD8001946074803F0E8F80548FFF72FFF0448D0
:100AE800FFF71CFF00BF3837BD4680BD000002403D
:100AF8000044004080B586B000AF3B4600221A6033
:100B08005A609A60DA601A615A618020FFF78CFE99
:100B18000120FFF789FE0220FFF786FE0820FFF775
:100B280083FE0420FFF780FE4FF480512548FFF72D
:100B38001BFF4FF480512448FFF716FF4FF48051F4
:100B48002248FFF711FF01233B6000237B6000234D
:100B58003B613B4619461E4802F093FC4FF4805314
:100B68003B6001237B600023BB600023FB60002304
:100B78003B613B461946134802F083FC4FF480530F
:100B88003B6001237B600023BB600023FB600023E4
:100B98003B613B4619460C4802F073FC4FF4805306
:100BA8003B6001237B600023BB600023FB600023C4
:100BB8003B613B461946054802F063FC00BF183705
:100BC800BD4680BD00040240000C024000080240FF
:100BD8000000024080B400AF72B600BFFEE700001C
:100BE80080B483B000AF00237B60104B5B6C0F4A6E
:100BF80043F4804353640D4B5B6C03F480437B6088
:100C08007B6800233B60094B1B6C084A43F0805308
:100C18001364064B1B6C03F080533B603B6800BFBA
:100C28000C37BD465DF8047B704700BF00380240B2
:100C380080B58AB000AF786007F1140300221A600B
:100C48005A609A60DA601A617B681B68B3F1A04F3A
:100C580032D100233B611A4B1B6B194A43F0010345
:100C68001363174B1B6B03F001033B613B694FF4A4
:100C7800C0537B610223BB610023FB6103233B62FA
:100C88000A237B6207F1140319460E4800F01AFD87
:100C98000B4B5B6B0A4A43F0800353630023FB60F2
:100CA800074B5B6C064A43F480435364044B5B6C0C
:100CB80003F48043FB60FB6800BF2837BD4680BD56
:100CC800003802400000024080B582B000AF786072
:100CD8007B681B68B3F1A04F0AD1074B5B6B064AD0
:100CE80023F0800353634FF4C051044800F086FE9C
:100CF80000BF0837BD4680BD0038024000000240F2
:100D080080B400AFFEE780B400AFFEE780B400AF68
:100D1800FEE780B400AFFEE780B400AFFEE780B422
:100D280000AF00BFBD465DF8047B704780B400AFDC
:100D380000BFBD465DF8047B704780B400AF00BFBC
:100D4800BD465DF8047B704780B500AF00F0C4F87D
:100D580000BF80BD80B400AF064BD3F88830054A89
:100D680043F47003C2F8883000BFBD465DF8047BC9
:100D7800704700BF00ED00E0DFF834D00D480E49A1
:100D88000E4A002302E0D458C4500433C4188C42DD
:100D9800F9D30B4A0B4C002301E013600432A24242
:100DA800FBD3FFF7D7FF08F03BFAFFF7ECFD7047DE
:100DB800000002200000002088010020D0930008D5
:100DC80088010020EC120020FEE7000080B500AF8B
:100DD8000E4B1B680D4A43F4007313600B4B1B68E2
:100DE8000A4A43F480631360084B1B68074A43F4BC
:100DF80080731360032000F059F90F2000F03CF8CD
:100E0800FFF7EEFE0023184680BD00BF003C0240FD
:100E180080B500AF134B4FF0FF321A62114B00221E
:100E28001A62104B4FF0FF325A620E4B00225A6280
:100E38000C4B4FF0FF321A610A4B00221A61094B22
:100E48004FF0FF325A61074B00225A61054B4FF0B1
:100E5800FF329A61034B00229A6100F005F80023E3
:100E6800184680BD0038024080B400AF00BFBD46C0
:100E78005DF8047B7047000080B582B000AF7860F1
:100E8800124B1A68124B1B7819464FF47A73B3FB4E
:100E9800F1F3B2FBF3F3184600F02FF90346002BE9
:100EA80001D001230EE07B680F2B0AD80022796855
:100EB8004FF0FF3000F005F9064A7B681360002305
:100EC80000E0012318460837BD4680BD0000002019
:100ED800080000200400002080B400AF064B1B78F7
:100EE8001A46064B1B681344044A136000BFBD46EC
:100EF8005DF8047B704700BF08000020B40600209E
:100F080080B584B000AF786006F0F8FAB8607B6806
:100F1800FB60FB68B3F1FF3F05D00A4B1B781A460C
:100F2800FB681344FB6000BF06F0E8FA0246BB68A2
:100F3800D31AFA689A42F7D800BF00BF1037BD46E7
:100F480080BD00BF0800002080B485B000AF786085
:100F58007B6803F00703FB600C4BDB68BB60BA6877
:100F68004FF6FF031340BB60FB681A02BB681343CC
:100F780043F0BF6343F40033BB60044ABB68D360EB
:100F880000BF1437BD465DF8047B704700ED00E0F4
:100F980080B400AF044BDB681B0A03F00703184654
:100FA800BD465DF8047B704700ED00E080B483B077
:100FB80000AF03463960FB7197F90730002B0ADB55
:100FC8003B68DAB20C4997F907301201D2B20B44E8
:100FD80083F800230AE03B68DAB20849FB7903F09A
:100FE8000F03043B1201D2B20B441A7600BF0C3730
:100FF800BD465DF8047B704700E100E000ED00E0CD
:1010080080B489B000AFF860B9607A60FB6803F01B
:101018000703FB61FB69C3F10703042B28BF042303
:10102800BB61FB690433062B02D9FB69033B00E073
:1010380000237B614FF0FF32BB6902FA03F3DA4306
:10104800BB681A407B699A404FF0FF317B6901FA0F
:1010580003F3D9437B680B40134318462437BD4636
:101068005DF8047B7047000080B582B000AF7860FF
:101078007B68013BB3F1807F01D301230FE00A4A6B
:101088007B68013B53600F214FF0FF30FFF78EFF65
:10109800054B00229A60044B07221A600023184669
:1010A8000837BD4680BD00BF10E000E080B582B0C3
:1010B80000AF78607868FFF747FF00BF0837BD4684
:1010C80080BD80B586B000AF0346B9607A60FB7317
:1010D80000237B61FFF75CFF78617A68B9687869FB
:1010E800FFF78EFF024697F90F3011461846FFF7B3
:1010F8005DFF00BF1837BD4680BD80B582B000AF28
:1011080078607868FFF7B0FF034618460837BD4691
:1011180080BD000080B586B000AFF860B960C7E94F
:1011280000230123FB75234B1B7E012B01D10223D6
:101138003BE0204B01221A764CF2503000F070F858
:101148000346FB75FB7D002B2BD1FB68002B05D1DB
:101158003B781946B86800F01BF916E0FB68012BCC
:1011680005D13B881946B86800F0EEF80DE0FB6839
:10117800022B05D13B681946B86800F0C3F804E0B3
:10118800D7E90023B86800F08BF84CF2503000F033
:1011980047F80346FB75084B1B69074A23F0010310
:1011A8001361044B00221A76FB7D18461837BD469A
:1011B80080BD00BFB8060020003C024080B483B068
:1011C80000AF0023FB710B4B1B69002B0BDA094B9B
:1011D800094A5A60074B094A5A60064B1B69002B9B
:1011E80001DA0123FB71FB7918460C37BD465DF81F
:1011F800047B7047003C024023016745AB89EFCD73
:1012080080B400AF054B1B69044A43F000431361E7
:1012180000231846BD465DF8047B7047003C024039
:1012280080B584B000AF78600023FB601A4B0022C1
:10123800DA6106F063F9F86010E07B68B3F1FF3F0C
:101248000CD07B68002B07D006F058F90246FB68E3
:10125800D31A7A689A4201D2032319E00F4BDB684C
:1012680003F48033002BE8D10C4BDB6803F0010357
:10127800002B02D0094B0122DA60084BDB6803F02F
:10128800F203002B03D000F0A5F8012300E00023AF
:1012980018461037BD4680BDB8060020003C024005
:1012A80080B485B000AFF860C7E90023144B1B6910
:1012B800134A23F440731361114B1B69104A43F41A
:1012C800407313610E4B1B690D4A43F00103136110
:1012D800FB683A681A60BFF36F8F00BFD7E9000157
:1012E8004FF000024FF000030A000023F9680431B0
:1012F80013460B6000BF1437BD465DF8047B70478A
:10130800003C024080B483B000AF786039600D4B78
:101318001B690C4A23F4407313610A4B1B69094A81
:1013280043F400731361074B1B69064A43F001033A
:1013380013617B683A681A6000BF0C37BD465DF8D8
:10134800047B7047003C024080B483B000AF7860F3
:101358000B467B800D4B1B690C4A23F440731361C9
:101368000A4B1B69094A43F480731361074B1B69D5
:10137800064A43F0010313617B687A881A8000BF2C
:101388000C37BD465DF8047B704700BF003C024047
:1013980080B483B000AF78600B46FB700C4B1B69C0
:1013A8000B4A23F440731361094B094A1B69136103
:1013B800074B1B69064A43F0010313617B68FA78FF
:1013C8001A7000BF0C37BD465DF8047B704700BF3C
:1013D800003C024080B400AF274BDB6803F01003E9
:1013E800002B08D0254BDB6943F01003234AD36157
:1013F800214B1022DA60204BDB6803F02003002B1E
:1014080008D01E4BDB6943F008031C4AD3611A4B12
:101418002022DA60184BDB6803F04003002B08D069
:10142800164BDB6943F00403144AD361124B402284
:10143800DA60114BDB6803F08003002B08D00F4BF8
:10144800DB6943F002030D4AD3610B4B8022DA605B
:10145800094BDB6803F00203002B08D0074BDB695C
:1014680043F02003054AD361034B0222DA6000BF30
:10147800BD465DF8047B7047003C0240B80600207A
:1014880080B584B000AF786039600123FB73002316
:10149800BB60314B1B7E012B01D1022358E02E4B40
:1014A80001221A764CF25030FFF7BAFE0346FB735E
:1014B800FB7B002B48D13B684FF0FF321A607B68FA
:1014C8001B68012B15D17B681B69DAB27B685B68E6
:1014D8001946104600F044F84CF25030FFF7A0FED1
:1014E8000346FB731D4B1B691C4A23F0040313615D
:1014F80028E07B689B68BB601CE07B681B69DBB2EB
:101508001946B86800F050F84CF25030FFF788FEE2
:101518000346FB73114B1B69104A23F0FA0313614E
:10152800FB7B002B03D03B68BA681A600AE0BB68F3
:101538000133BB607B68DA687B689B681344BA68D0
:101548009A42DAD300F078F8034B00221A76FB7B34
:1015580018461037BD4680BDB8060020003C024042
:1015680080B483B000AF03463960FB710D4B1B6933
:101578000C4A23F4407313610A4B1B69094A43F070
:1015880004031361074B1A69FB791B021343054ACD
:1015980043F48033136100BF0C37BD465DF8047B0C
:1015A800704700BF003C024080B485B000AF78604F
:1015B8000B46FB700023FB60FB78002B02D1002355
:1015C800FB6010E0FB78012B03D14FF48073FB60C4
:1015D80009E0FB78022B03D14FF40073FB6002E0B3
:1015E8004FF44073FB60134B1B69124A23F440739A
:1015F8001361104B1A690F49FB6813430B610D4BBC
:101608001B690C4A23F0F80313610A4B1A697B68BB
:10161800DB001343074A43F002031361054B1B69C0
:10162800044A43F48033136100BF1437BD465DF8A4
:10163800047B7047003C024080B400AF204B1B681D
:1016480003F40073002B17D01D4B1B681C4A23F4AE
:10165800007313601A4B1B68194A43F40063136044
:10166800174B1B68164A23F400631360144B1B685E
:10167800134A43F400731360114B1B6803F480632F
:10168800002B17D00E4B1B680D4A23F480631360A0
:101698000B4B1B680A4A43F480531360084B1B68C2
:1016A800074A23F480531360054B1B68044A43F42C
:1016B8008063136000BFBD465DF8047B704700BFC0
:1016C800003C024080B489B000AF786039600023E4
:1016D8007B6100233B610023BB610023FB616BE15D
:1016E8000122FB6902FA03F37B613B681B687A6994
:1016F80013403B613A697B699A4240F05A813B68E2
:101708005B6803F00303012B05D03B685B6803F0BB
:101718000303022B30D17B689B68BB61FB695B00CC
:10172800032202FA03F3DB43BA691340BB613B6847
:10173800DA68FB695B0002FA03F3BA691343BB6119
:101748007B68BA699A607B685B68BB610122FB6948
:1017580002FA03F3DB43BA691340BB613B685B6879
:101768001B0903F00102FB6902FA03F3BA69134388
:10177800BB617B68BA695A603B685B6803F0030326
:10178800032B17D07B68DB68BB61FB695B00032216
:1017980002FA03F3DB43BA691340BB613B689A68FA
:1017A800FB695B0002FA03F3BA691343BB617B6808
:1017B800BA69DA603B685B6803F00303022B23D144
:1017C800FB69DA087B68083253F82230BB61FB6991
:1017D80003F007039B000F2202FA03F3DB43BA6905
:1017E8001340BB613B681A69FB6903F007039B0060
:1017F80002FA03F3BA691343BB61FB69DA087B6831
:101808000832B96943F822107B681B68BB61FB6921
:101818005B00032202FA03F3DB43BA691340BB619E
:101828003B685B6803F00302FB695B0002FA03F3A1
:10183800BA691343BB617B68BA691A603B685B6825
:1018480003F44033002B00F0B4800023FB60604BAE
:101858005B6C5F4A43F4804353645D4B5B6C03F4F9
:101868008043FB60FB685B4AFB699B08023352F8C4
:101878002330BB61FB6903F003039B000F2202FACC
:1018880003F3DB43BA691340BB617B68524A934256
:101898002BD07B68514A934225D07B68504A9342AB
:1018A8001FD07B684F4A934219D07B684E4A9342B7
:1018B80013D07B684D4A93420DD07B684C4A9342C3
:1018C80007D07B684B4A934201D107230EE00823D7
:1018D8000CE006230AE0052308E0042306E00323BE
:1018E80004E0022302E0012300E00023FA6902F089
:1018F800030292009340BA691343BB613549FB69FF
:101908009B080233BA6941F823203B4B9B68BB61B3
:101918003B69DB43BA691340BB613B685B6803F40E
:101928008013002B03D0BA693B691343BB61324A69
:10193800BB699360304BDB68BB613B69DB43BA69C9
:101948001340BB613B685B6803F40013002B03D0B2
:10195800BA693B691343BB61274ABB69D360264B0D
:101968005B68BB613B69DB43BA691340BB613B6899
:101978005B6803F40033002B03D0BA693B69134357
:10198800BB611D4ABB6953601B4B1B68BB613B694C
:10199800DB43BA691340BB613B685B6803F480337F
:1019A800002B03D0BA693B691343BB61124ABB6978
:1019B8001360FB690133FB61FB690F2B7FF690AE67
:1019C80000BF00BF2437BD465DF8047B704700BFE9
:1019D8000038024000380140000002400004024084
:1019E80000080240000C02400010024000140240AF
:1019F80000180240001C0240003C014080B487B03F
:101A080000AF7860396000233B610023FB6000234E
:101A1800BB6000237B61CDE001227B6902FA03F3FE
:101A28003B613A683B691340FB60FA683B699A423C
:101A380040F0BD80654A7B699B08023352F8233029
:101A4800BB607B6903F003039B000F2202FA03F3D8
:101A5800BA681340BB607B685D4A93422BD07B68B1
:101A68005C4A934225D07B685B4A93421FD07B68CF
:101A78005A4A934219D07B68594A934213D07B68DB
:101A8800584A93420DD07B68574A934207D07B68E7
:101A9800564A934201D107230EE008230CE006239F
:101AA8000AE0052308E0042306E0032304E00223F8
:101AB80002E0012300E000237A6902F003029200A9
:101AC8009340BA689A4232D1494B1A68FB68DB43A3
:101AD800474913400B60464B5A68FB68DB4344494F
:101AE80013404B60424BDA68FB68DB4340491340C4
:101AF800CB603F4B9A68FB68DB433D4913408B60E2
:101B08007B6903F003039B000F2202FA03F3BB6017
:101B18002E4A7B699B08023352F82310BB68DA43CC
:101B28002A487B699B080A40023340F823207B68D7
:101B38001A687B695B00032101FA03F3DB431A404F
:101B48007B681A607B69DA087B68083253F82210D0
:101B58007B6903F007039B000F2202FA03F3DB43C0
:101B68007A69D20819407B68083243F822107B68EA
:101B7800DA687B695B00032101FA03F3DB431A404F
:101B88007B68DA607B685A6801217B6901FA03F394
:101B9800DB431A407B685A607B689A687B695B0004
:101BA800032101FA03F3DB431A407B689A607B69DF
:101BB80001337B617B690F2B7FF62EAF00BF00BF1F
:101BC8001C37BD465DF8047B704700BF00380140F4
:101BD800000002400004024000080240000C0240DD
:101BE800001002400014024000180240001C02408D
:101BF800003C0140F0B58FB00AAF78607B68002BDD
:101C080001D101230FE17B681B68BB607B6893F8F7
:101C1800BD34DBB2002B06D17B68002283F8BC24DC
:101C28007868FFF705F87B68032283F8BD24BB6852
:101C3800DB6B03F48073002B02D17B6800221A61EE
:101C48007B681B68184602F0C4F97B681B683B6018
:101C58007E686D4606F110040FCC0FC50FCC0FC57A
:101C680094E8030085E80300331D0ECB386802F0C2
:101C78009BF80346002B05D07B68022283F8BD241D
:101C88000123D0E07B681B680021184602F0B2F9F6
:101C98000023FB734AE0FA7B79681346DB001344A0
:101CA8009B000B443D3301221A70FA7B7968134676
:101CB800DB0013449B000B443C33FA7B1A70FA7B1D
:101CC800FB7B98B279681346DB0013449B000B44F6
:101CD800443302461A80FA7B79681346DB001344C2
:101CE8009B000B44403300221A70FA7B7968134634
:101CF800DB0013449B000B44483300221A60FA7B34
:101D080079681346DB0013449B000B444C330022D4
:101D18001A60FA7B79681346DB0013449B000B4476
:101D2800543300221A60FB7B0133FB73FA7B7B6818
:101D38005B689A42AFD30023FB7344E0FA7B79686F
:101D48001346DB0013449B000B4403F27D2300225F
:101D58001A70FA7B79681346DB0013449B000B4426
:101D680003F51F73FA7B1A70FA7B79681346DB0058
:101D780013449B000B4403F5207300221A70FA7B6E
:101D880079681346DB0013449B000B4403F5227368
:101D980000221A60FA7B79681346DB0013449B0023
:101DA8000B4403F5237300221A60FA7B7968134603
:101DB800DB0013449B000B4403F5257300221A60D3
:101DC800FB7B0133FB73FA7B7B685B689A42B5D374
:101DD8007B681B683B607E686D4606F110040FCC7B
:101DE8000FC50FCC0FC594E8030085E80300331D29
:101DF8000ECB386802F04AF90346002B05D07B6801
:101E0800022283F8BD2401230DE07B68002283F8B9
:101E180038207B68012283F8BD247B681B6818463C
:101E280003F0E8FA002318461437BD46F0BD80B524
:101E380082B000AF78607B68002B01D1012315E0E8
:101E48007B68032283F8BD247B681B68184603F06F
:101E58003BFA0346002B01D0012307E07868FEF720
:101E680033FF7B68002283F8BD2400231846083717
:101E7800BD4680BD80B584B000AF78607B681B68C4
:101E8800FB607B6893F8BC34012B01D1022320E06E
:101E98007B68012283F8BC247B689B6A012B09D1EB
:101EA8007B689B69012B05D0FB689B6B43F48032F0
:101EB800FB689A637B681B68184602F079F87B68B0
:101EC8001B68184603F075FA7B68002283F8BC2467
:101ED800002318461037BD4680BD80B584B000AFDA
:101EE80078607B681B68FB607B6893F8BC34012BC7
:101EF80001D1022326E07B68012283F8BC247B6899
:101F08001B68184602F065F87B681B68184603F0E2
:101F180071FA7B681B681021184602F01BFA7B686F
:101F28009B6A012B09D17B689B69012B05D0FB6853
:101F38009B6B23F48032FB689A637B68002283F8EA
:101F4800BC24002318461037BD4680BD90B58DB01F
:101F580000AF78607B681B683B623B6AFB617B680B
:101F68001B68184603F0FAFA0346002B40F08A84EF
:101F78007B681B68184603F05EFA0346002B00F0E6
:101F88008084FB6903F500639B681B0AC3F30D0299
:101F98007B68C3F8FC247B681B68184603F04BFA7F
:101FA800034603F00203022B07D17B681B685A69BA
:101FB8007B681B6802F002025A617B681B6818463E
:101FC80003F039FA034603F01003102B61D17B6844
:101FD8001B689A697B681B6822F010029A613B6A49
:101FE8001B6ABB61BB6903F00F021346DB00134495
:101FF8009B0003F51E737A68134404337B61BB6945
:102008005B0C03F00F03022B24D1BA6947F6F07377
:102018001340002B35D07B691969BB691B099BB23A
:10202800C3F30A039BB21A46386A03F021F87B69A6
:102038001A69BB691B09C3F30A031A447B691A614D
:102048007B691A6ABB691B09C3F30A031A447B69D3
:102058001A6216E0BB695B0C03F00F03062B10D164
:102068007B6803F2C44308221946386A03F000F873
:102078007B691A6ABB691B09C3F30A031A447B69A3
:102088001A627B681B689A697B681B6842F01002B9
:102098009A617B681B68184603F0CDF9034603F480
:1020A8000023B3F5002F40F0A78000237B627B68F4
:1020B8001B68184603F0D2F9B86299E0BB6A03F0CE
:1020C8000103002B00F08E807B681B687A6AD2B20D
:1020D8001146184603F0F6F938613B6903F001032D
:1020E800002B0CD07B6A5A01FB69134403F530635B
:1020F8001A4601239360796A786800F01FFF3B69EC
:1021080003F00803002B0CD07B6A5A01FB691344C7
:1021180003F530631A4608239360796A786800F0FB
:10212800F5FF3B6903F01003002B08D07B6A5A01C6
:10213800FB69134403F530631A46102393603B6927
:1021480003F00203002B30D03B6A5B6903F0800385
:10215800802B09D1FB6903F500635B68FA6902F516
:10216800006243F4806353607A6A1346DB001344C9
:102178009B0003F51E737A68134404337B617B6903
:10218800DB78012B08D17B690022DA707B6ADBB22D
:102198001946786806F050FD7B6A5A01FB691344BA
:1021A80003F530631A46022393603B6903F020036A
:1021B800002B08D07B6A5A01FB69134403F530638E
:1021C8001A46202393603B6903F40053002B09D07F
:1021D8007B6A5A01FB69134403F530631A464FF4CE
:1021E800005393607B6A01337B62BB6A5B08BB6206
:1021F800BB6A002B7FF462AF7B681B68184603F04C
:102208001AF9034603F48023B3F5802F40F0DB80EE
:102218007B681B68184603F03BF9B86200237B62B1
:10222800CDE0BB6A03F00103002B00F0C2807B689D
:102238001B687A6AD2B21146184603F061F9386110
:102248003B6903F00103002B57D07B6A03F00F03AF
:10225800012202FA03F3FB60FB6903F500635A6B82
:10226800FB68DB43F96901F5006113404B637B6A46
:102278005A01FB69134403F510631A46012393605E
:102288007B681B69012B32D179687A6A1346DB00B7
:1022980013449B000B444C33196878687A6A1346D8
:1022A800DB0013449B00034448331B6819447868D7
:1022B8007A6A1346DB0013449B0003444C331960CD
:1022C8007B6A002B13D179687A6A1346DB001344C2
:1022D8009B000B4454331B68002B08D17B6818689B
:1022E8007B6803F2C4431A46012103F069F97B6A4B
:1022F800DBB21946786806F017FC3B6903F008035F
:10230800002B08D07B6A5A01FB69134403F510635C
:102318001A46082393603B6903F01003002B08D08A
:102328007B6A5A01FB69134403F510631A461023AC
:1023380093603B6903F04003002B08D07B6A5A0185
:10234800FB69134403F510631A46402393603B6905
:1023580003F00203002B23D0796A386A01F0FAFFF0
:102368007A6A1346DB0013449B0038337A681344B7
:1023780004337B617B69DB78012B08D17B69002200
:10238800DA707B6ADBB21946786806F067FC7B6A0C
:102398005A01FB69134403F510631A46022393603C
:1023A8003B6903F08003002B03D0796A786800F05A
:1023B80037FD7B6A01337B62BB6A5B08BB62BB6A21
:1023C800002B7FF42EAF7B681B68184603F033F8A8
:1023D800034603F00043B3F1004F22D1FB6903F534
:1023E80000635B68FA6902F5006223F00103536039
:1023F8007B6893F8F434012B08D17B68002283F8BA
:10240800F4240021786800F01FFF02E0786806F0E5
:1024180003FC7B681B685A697B681B6802F00042F2
:102428005A617B681B68184603F005F8034603F4F5
:102438000063B3F5006F12D1FB6903F500639B6875
:1024480003F00103012B02D1786806F0BDFB7B681D
:102458001B685A697B681B6802F400625A617B68D2
:102468001B68184602F0E7FF034603F48053B3F5F0
:10247800805F40F0B780FB6903F500635B68FA6929
:1024880002F5006223F0010353607B681B6810218A
:10249800184601F05FFF0023FB6246E0FB6A5A0121
:1024A800FB69134403F510631A464FF67F339360B4
:1024B800FB6A5A01FB69134403F510631B68FA6A47
:1024C8005101FA690A4402F5106223F400131360FB
:1024D800FB6A5A01FB69134403F530631A464FF649
:1024E8007F339360FB6A5A01FB69134403F5306339
:1024F8001B68FA6A5101FA690A4402F5306223F44A
:1025080000131360FB6A5A01FB69134403F5306337
:102518001B68FA6A5101FA690A4402F5306243F00D
:1025280000631360FB6A0133FB627B685B68FA6ACD
:102538009A42B3D3FB6903F50063DB69FA6902F5D4
:10254800006243F00113D3617B681B6B002B16D02C
:10255800FB6903F50063D3F88430FA6902F5006279
:1025680043F00B03C2F88430FB6903F500635B6C2E
:10257800FA6902F5006243F00B03536415E0FB6946
:1025880003F500635B69FA6902F5006243F40053DE
:1025980043F02B035361FB6903F500631B69FA6978
:1025A80002F5006243F00B031361FB6903F5006356
:1025B8001B68FA6902F5006223F4FE6313607B6806
:1025C80018687B681B69D9B27B6803F2C4431A4652
:1025D80002F0F6FF7B681B685A697B681B6802F487
:1025E80080525A617B681B68184602F024FF034634
:1025F80003F40053B3F5005F24D17B681B681846C9
:1026080002F0BAFF7B681B68184601F020FF0346FA
:102618001A467B68DA607B681C6800F021FE014678
:102628007B68DB68DBB21A46204601F01FFC78683D
:1026380006F0A2FA7B681B685A697B681B6802F47B
:1026480000525A617B681B68184602F0F4FE034684
:1026580003F00803082B0AD1786806F07FFA7B6834
:102668001B685A697B681B6802F008025A617B681C
:102678001B68184602F0DFFE034603F08003802B38
:1026880022D13B6A9B6923F080023B6A9A6101234D
:102698007B6214E079687A6A1346DB0013449B0076
:1026A8000B4403F27F231B78012B05D17B6ADBB235
:1026B8001946786800F083FB7B6A01337B627B688C
:1026C8005B687A6A9A42E5D37B681B68184602F011
:1026D800B2FE034603F48013B3F5801F3BD10123F8
:1026E8007B622BE07B6A5A01FB69134403F5106394
:1026F8001B68BB6179687A6A1346DB0013449B0048
:102708000B4440331B78012B15D1BB69002B12DA1F
:1027180079687A6A1346DB0013449B000B443F3305
:1027280001221A707B6ADBB263F07F03DBB21946C1
:10273800786800F044FB7B6A01337B627B685B68E6
:102748007A6A9A42CED37B681B685A697B681B6891
:1027580002F480125A617B681B68184602F06BFE0F
:10276800034603F40013B3F5001F55D101237B6220
:1027780045E07B6A5A01FB69134403F530631B6823
:10278800BB6179687A6A1346DB0013449B000B44EB
:1027980003F520731B78012B2ED1BB69002B2BDA94
:1027A800BB6903F480327B68D3F8FC3403F001037F
:1027B8009A4221D179687A6A1346DB0013449B0058
:1027C8000B4403F27F2301221A703B6A9B6943F092
:1027D80080023B6A9A613B6A5B6903F08003002BC5
:1027E8000AD1FB6903F500635B68FA6902F50062C8
:1027F80043F40073536007E07B6A01337B627B68B4
:102808005B687A6A9A42B4D37B681B685A697B68AA
:102818001B6802F400125A617B681B68184602F0B4
:102828000AFE034603F08043B3F1804F0AD178686B
:1028380006F026FA7B681B685A697B681B6802F0F9
:1028480080425A617B681B68184602F0F4FD034613
:1028580003F00403042B15D17B681B685B68BB611C
:10286800BB6903F00403002B02D0786806F019FA5C
:102878007B681B6859687B681B68BA690A435A6099
:1028880000E000BF3437BD4690BD80B584B000AFCE
:1028980078607B681B68FB607B6893F8BC34012B0D
:1028A80001D102231BE07B68012283F8BC247B68EA
:1028B8009B6A012B09D17B689B69012B05D0FB68BA
:1028C8009B6B43F48032FB689A637B681B681846ED
:1028D80002F06FFD7B68002283F8BC2400231846B1
:1028E8001037BD4680BD80B584B000AF78607B6886
:1028F8001B68FB607B6893F8BC34012B01D1022371
:102908001BE07B68012283F8BC247B681B6818469F
:1029180002F070FD7B689B6A012B09D17B689B697B
:10292800012B05D0FB689B6B23F48032FB689A630C
:102938007B68002283F8BC24002318461037BD4664
:1029480080BD80B582B000AF78600B46FB707B68B5
:1029580093F8BC34012B01D1022313E07B680122D8
:1029680083F8BC247B68FA7883F838207B681B6876
:10297800FA781146184602F0F6FC7B68002283F8C4
:10298800BC24002318460837BD4680BD80B584B0F6
:1029980000AF7860084611461A460346FB700B469E
:1029A8003B801346BB700023FB7297F90330002B62
:1029B8000FDAFB7803F00F021346DB0013449B0089
:1029C80038337A6813440433FB60FB6801225A7079
:1029D8000FE0FB7803F00F021346DB0013449B0063
:1029E80003F51E737A6813440433FB60FB68002206
:1029F8005A70FB7803F00F03DAB2FB681A703A8852
:102A0800FB68DA60FB68BA781A71FB685B78002BA0
:102A180004D0FB681B789AB2FB681A81BB78022B3A
:102A280002D1FB6800225A717B6893F8BC34012BF1
:102A380001D102230EE07B68012283F8BC247B6865
:102A48001B68F968184601F027FD7B68002283F8A7
:102A5800BC24FB7A18461037BD4680BD80B584B0CB
:102A680000AF78600B46FB7097F90330002B0FDA44
:102A7800FB7803F00F021346DB0013449B00383346
:102A88007A6813440433FB60FB6801225A700FE034
:102A9800FB7803F00F021346DB0013449B0003F599
:102AA8001E737A6813440433FB60FB6800225A7073
:102AB800FB7803F00F03DAB2FB681A707B6893F8AF
:102AC800BC34012B01D102230EE07B68012283F87C
:102AD800BC247B681B68F968184601F065FD7B68B3
:102AE800002283F8BC24002318461037BD4680BD59
:102AF80080B586B000AFF8607A603B600B46FB7229
:102B0800FB7A03F00F021346DB0013449B0003F526
:102B18001E73FA68134404337B617B697A681A610F
:102B28007B693A689A617B6900221A627B69002294
:102B38005A70FB7A03F00F03DAB27B691A70FB68EC
:102B48001B69012B02D17A687B695A61FB7A03F011
:102B58000F03002B09D1FB681868FB681B69DBB2FF
:102B68001A46796902F044F808E0FB681868FB68BF
:102B78001B69DBB21A46796901F0F2FD0023184699
:102B88001837BD4680BD80B483B000AF78600B466F
:102B9800FB70FB7803F00F0279681346DB001344DF
:102BA8009B000B4403F527731B6818460C37BD467A
:102BB8005DF8047B704780B586B000AFF8607A6036
:102BC8003B600B46FB72FB7A03F00F021346DB00F7
:102BD80013449B003833FA68134404337B617B69E0
:102BE8007A681A617B693A689A617B6900221A627D
:102BF8007B6901225A70FB7A03F00F03DAB27B6912
:102C08001A70FB681B69012B02D17A687B695A61CB
:102C1800FB7A03F00F03002B09D1FB681868FB68E7
:102C28001B69DBB21A46796901F0E2FF08E0FB682C
:102C38001868FB681B69DBB21A46796901F090FDD8
:102C4800002318461837BD4680BD80B584B000AF54
:102C580078600B46FB70FB7803F00F027B685B68BB
:102C68009A4201D9012350E097F90330002B0FDA7B
:102C7800FB7803F00F021346DB0013449B00383344
:102C88007A6813440433FB60FB6801225A700DE034
:102C9800FA781346DB0013449B0003F51E737A6829
:102CA80013440433FB60FB6800225A70FB6801225E
:102CB8009A70FB7803F00F03DAB2FB681A707B682E
:102CC80093F8BC34012B01D102231EE07B6801225A
:102CD80083F8BC247B681B68F968184602F020FA60
:102CE800FB7803F00F03002B0AD17B6818687B6818
:102CF8001B69D9B27B6803F2C4431A4602F060FC30
:102D08007B68002283F8BC24002318461037BD4690
:102D180080BD80B584B000AF78600B46FB70FB784F
:102D280003F00F027B685B689A4201D9012342E0F5
:102D380097F90330002B0FDAFB7803F00F021346E4
:102D4800DB0013449B0038337A6813440433FB6078
:102D5800FB6801225A700FE0FB7803F00F0213465C
:102D6800DB0013449B0003F51E737A681344043395
:102D7800FB60FB6800225A70FB6800229A70FB789F
:102D880003F00F03DAB2FB681A707B6893F8BC345F
:102D9800012B01D102230EE07B68012283F8BC24B9
:102DA8007B681B68F968184602F028FA7B680022DD
:102DB80083F8BC24002318461037BD4680BD80B573
:102DC80084B000AF78600B46FB7097F90330002B96
:102DD8000CDAFB7803F00F021346DB0013449B0068
:102DE80038337A6813440433FB600CE0FB7803F053
:102DF8000F021346DB0013449B0003F51E737A6829
:102E080013440433FB607B681B68F968184602F0BA
:102E180047F80346FB72FB7A18461037BD4680BD5B
:102E280080B58AB002AF786039607B681B687B61C7
:102E38007B693B613A681346DB0013449B003833D7
:102E48007A6813440433FB60FB681A6AFB689B6961
:102E58009A4201D901236CE0FB689A69FB681B6AF6
:102E6800D31AFB61FB68DB68FA699A4202D9FB68EE
:102E7800DB68FB61FB6903339B08BB612BE0FB68E4
:102E88009A69FB681B6AD31AFB61FB68DB68FA69FD
:102E98009A4202D9FB68DB68FB61FB6903339B0834
:102EA800BB61FB6819693B68DAB2FB6998B27B6859
:102EB8001B69DBB200930346786902F09BF8FB6854
:102EC8001A69FB691A44FB681A61FB681A6AFB698C
:102ED8001A44FB681A623B685A013B69134403F5BC
:102EE80010639B699BB2BA699A4209D8FB681A6A4F
:102EF800FB689B699A4203D2FB689B69002BBED191
:102F0800FB689A69FB681B6A9A4211D83B6803F010
:102F18000F03012202FA03F3BB603B6903F5006368
:102F28005A6BBB68DB43396901F5006113404B6399
:102F3800002318462037BD4680BD000080B588B004
:102F480000AF786039607B681B68FB61FB69BB6117
:102F5800FB693C3304331B687B613B685A01BB69DE
:102F6800134403F530639B683B617B681B69012B45
:102F78007BD13B6903F00803002B15D07B69614ABC
:102F8800934240F2B9803B6903F40043002B00F000
:102F9800B3803B685A01BB69134403F530631A4692
:102FA8004FF400439360A7E03B6903F02003002B34
:102FB80009D03B685A01BB69134403F530631A46CC
:102FC8002023936098E03B6903F02803002B40F02E
:102FD80093807B694B4A93420FD93B6903F40043C2
:102FE800002B0AD03B685A01BB69134403F53063D0
:102FF8001A464FF4004393607EE03A681346DB00BC
:1030080013449B0003F51E737A6813440433FB6072
:10301800FB68DA693B685901BB690B4403F5306307
:103028001B69C3F31203D21AFB681A623B68002BB0
:1030380014D1FB689B69002B09D17B6818687B68F1
:1030480003F2C4431A46012102F0BAFA06E0FB680B
:103058001A69FB681B6A1A44FB681A613B68DBB291
:103068001946786805F045FD46E07B69264A934293
:1030780024D13B6903F40043002B0AD03B685A0172
:10308800BB69134403F530631A464FF40043936059
:1030980032E03B6903F02003002B08D03B685A015B
:1030A800BB69134403F530631A46202393603B68D9
:1030B800DBB21946786805F01CFD1DE03B68002B63
:1030C80014D179683A681346DB0013449B000B441B
:1030D80003F525731B68002B08D17B6818687B688B
:1030E80003F2C4431A46002102F06AFA3B68DBB2D5
:1030F8001946786805F0FDFC002318462037BD46C0
:1031080080BD00BF0A30544F0A31544F80B586B095
:1031180000AF786039607B681B687B617B693B61C5
:103128007B693C3304331B68FB603B685A013B698D
:10313800134403F530639B68BB60FB68154A9342F0
:103148000ED9BB6803F40043002B09D03B685A0131
:103158003B69134403F530631A464FF40043936008
:10316800786805F0B4FCFB680A4A93420CD97B687E
:103178001B69012B08D17B6818687B6803F2C4437C
:103188001A46012102F01CFA002318461837BD46DA
:1031980080BD00BF0A30544F80B485B000AF78605E
:1031A8000B46FB7013463B807B681B685B6ABB6001
:1031B800FB78002B07D13B8819047B681B68BA6829
:1031C8000A439A6228E07B681B689B6A1B0CBA68F2
:1031D8001344BB600023FB730DE07B681A68FB7B1C
:1031E80040339B0013445B681B0CBA681344BB60F4
:1031F800FB7B0133FB73FA7BFB78013B9A42ECD3F0
:103208003B8818047B681968FB78013BBA6802435D
:1032180040339B000B445A60002318461437BD46C0
:103228005DF8047B704780B483B000AF78600B46CC
:103238007B807B681B687A885A62002318460C37A3
:10324800BD465DF8047B704780B483B000AF7860FA
:103258000B46FB7000BF0C37BD465DF8047B70471A
:1032680080B400AF034B1B681846BD465DF8047B6D
:10327800704700BF0000002080B489B000AFF8603C
:10328800B9607A60FB681A68BB687B617B6993FAEE
:10329800A3F33B613B69B3FA83F3DBB25B00032121
:1032A80001FA03F3DB431A40BB68FB61FB6993FA3D
:1032B800A3F3BB61BB69B3FA83F3DBB25B00796844
:1032C80001FA03F31A43FB681A6000BF2437BD46AE
:1032D8005DF8047B704780B485B000AFF860B960D2
:1032E8007A60FB685A68BB68DB431A40BB68796838
:1032F80001FB03F31A43FB685A6000BF1437BD464D
:103308005DF8047B704780B489B000AFF860B9609D
:103318007A60FB689A68BB687B617B6993FAA3F360
:103328003B613B69B3FA83F3DBB25B00032101FA2B
:1033380003F3DB431A40BB68FB61FB6993FAA3F311
:10334800BB61BB69B3FA83F3DBB25B00796801FA4E
:1033580003F31A43FB689A6000BF2437BD465DF843
:10336800047B704780B489B000AFF860B9607A60B8
:10337800FB68DA68BB687B617B6993FAA3F33B61FE
:103388003B69B3FA83F3DBB25B00032101FA03F371
:10339800DB431A40BB68FB61FB6993FAA3F3BB618B
:1033A800BB69B3FA83F3DBB25B00796801FA03F314
:1033B8001A43FB68DA6000BF2437BD465DF8047B1A
:1033C800704780B489B000AFF860B9607A60FB6874
:1033D8001A6ABB687B617B6993FAA3F33B613B691B
:1033E800B3FA83F3DBB29B000F2101FA03F3DB434B
:1033F8001A40BB68FB61FB6993FAA3F3BB61BB6925
:10340800B3FA83F3DBB29B00796801FA03F31A433A
:10341800FB681A6200BF2437BD465DF8047B70471D
:1034280080B489B000AFF860B9607A60FB685A6A06
:10343800BB681B0A7B617B6993FAA3F33B613B6919
:10344800B3FA83F3DBB29B000F2101FA03F3DB43EA
:103458001A40BB681B0AFB61FB6993FAA3F3BB61C3
:10346800BB69B3FA83F3DBB29B00796801FA03F313
:103478001A43FB685A6200BF2437BD465DF8047BD7
:10348800704780B588B000AF786039600023FB6171
:103498000023BB613B681B687B617B6993FAA3F3DC
:1034A8003B613B69B3FA83F3DBB2FB6150E03B68F5
:1034B8001A680121FB6901FA03F31340BB61BB6978
:1034C800002B42D03B685B68012B03D03B685B68EC
:1034D800022B0DD13B689B681A46B9697868FFF7DB
:1034E80012FF3B68DB681A46B9697868FFF7F3FE94
:1034F8003B681B691A46B9697868FFF733FF3B6870
:103508005B68022B1AD1BB69FB60FB6893FAA3F3D3
:10351800BB60BB68B3FA83F3DBB2072B07D83B6801
:103528005B691A46B9697868FFF74BFF06E03B68A4
:103538005B691A46B9697868FFF772FF3B685B6890
:103548001A46B9697868FFF797FEFB690133FB6192
:103558003B681A68FB6922FA03F3002BA7D1002302
:1035680018462037BD4680BD80B400AF044B9B6829
:1035780003F00C031846BD465DF8047B704700BF96
:103588000038024080B400AF044B9B6803F0F0039E
:103598001846BD465DF8047B704700BF00380240FE
:1035A80080B400AF044B9B6803F4E0531846BD4653
:1035B8005DF8047B704700BF0038024080B400AF5C
:1035C800044B9B6803F460431846BD465DF8047BD2
:1035D800704700BF0038024080B400AF044B5B68FE
:1035E80003F480031846BD465DF8047B704700BFAE
:1035F8000038024080B400AF044B5B689B09C3F3FA
:1036080008031846BD465DF8047B70470038024041
:1036180080B400AF044B5B6803F440331846BD46E2
:103628005DF8047B704700BF0038024080B400AFEB
:10363800044B5B6803F03F031846BD465DF8047B06
:10364800704700BF0038024080B582B000AF786094
:1036580000F020F802467B681A607B681B681846F1
:1036680000F040F802467B685A607B685B68184641
:1036780000F04EF802467B689A607B685B681846E3
:1036880000F05AF802467B68DA6000BF0837BD468A
:1036980080BD000080B582B000AF00237B60FFF7DB
:1036A80063FF0346082B0CD0082B0FD8002B02D041
:1036B800042B03D00AE0094B7B600AE0084B7B60CF
:1036C80007E0082000F04CF8786002E0034B7B60CC
:1036D80000BF7B6818460837BD4680BD0024F4004B
:1036E80000127A0080B582B000AF7860FFF74AFF19
:1036F80003461B0903F00F03044AD35C1A467B6890
:10370800D34018460837BD4680BD00BF589300080F
:1037180080B582B000AF7860FFF742FF03469B0A8E
:10372800044AD35C1A467B68D34018460837BD461E
:1037380080BD00BF6893000880B582B000AF786094
:10374800FFF73CFF03465B0B044AD35C1A467B68D1
:10375800D34018460837BD4680BD00BF68930008AF
:1037680090B587B000AF786000237B610023FB60D1
:1037780000233B61FFF730FFF860FB68002B04D0A3
:10378800FB68B3F5800F03D005E0124B7B6105E0C1
:10379800114B7B6102E00F4B7B6100BF7B68082BFC
:1037A80013D1FFF743FF02467B69B3FBF2F4FFF73F
:1037B80021FF034603FB04F4FFF72AFF03461B0C13
:1037C80001335B00B4FBF3F33B613B6918461C37DC
:1037D800BD4690BD0024F40000127A0080B483B086
:1037E80000AF78607B68DB6803F40053B3F5005FD3
:1037F8000CBF01230023DBB218460C37BD465DF829
:10380800047B704780B483B000AF786039607B6810
:103818001B6923F440523B681A437B681A6100BF56
:103828000C37BD465DF8047B704780B483B000AFA9
:10383800786039607B685B6923F440723B681A439F
:103848007B685A6100BF0C37BD465DF8047B704742
:103858002DE9B04FC0B000AFC7F8FC00C7F8F810AA
:10386800C7F8F420C7F8F030D7F8F430B3F5004FB4
:1038780040F00C81D7F8F8300022C7F8E830C7F8D4
:10388800EC20D7E93A4522462B46911839665B4128
:103898007B66D7E91823214612EB0108294643EB3A
:1038A80001094FF000024FF000034FEAC90343EA51
:1038B80058734FEAC80290469946234618EB03030B
:1038C800C7F8E0302B4649EB0303C7F8E430D7F8D4
:1038D800F03000229A4693461AEB0A03BB654BEB7D
:1038E8000B03FB65D7E91623D7E93801FCF768FC19
:1038F80002460B46644BA3FB02235B099BB21B01E8
:103908009CB2D7F8F8300022C7F8D830C7F8DC20C6
:10391800D7E9368942464B46911839655B417B6544
:10392800D7E9142341465118B96449464B41FB6411
:103938004FF000024FF00003D7E912AB5946CB0015
:10394800514643EA51735146CA0010461946034688
:1039580042469B18C7F8D0304B460A4642EB030351
:10396800C7F8D430D7F8F0300022C7F8C830C7F805
:10397800CC20D7E932120B46DB183B64134642EBE6
:1039880003037B64D7E91023D7E93401FCF718FC5B
:1039980002460B4611463C4BA3FB01235B096422FC
:1039A80002FB03F3CB1ADB0003F13202364BA3FB15
:1039B80002235B099BB25B009BB203F4F8739BB2D2
:1039C80023449CB2D7F8F8300022C7F8C030C7F8B3
:1039D800C420D7E9308942464B469118B9635B4108
:1039E800FB63D7E90E2341465118396349464B41D9
:1039F8007B634FF000024FF00003D7E90CAB594648
:103A0800CB00514643EA51735146CA001046194645
:103A1800034642469B18C7F8B8304B460A4642EB65
:103A28000303C7F8BC30D7F8F0300022C7F8B0302D
:103A3800C7F8B420D7E92C120B46DB18BB62134633
:103A480042EB0303FB62D7E90A23D7E92E01FCF70F
:103A5800B7FB02460B460C4BA3FB02135B09642120
:103A680001FB03F3D31ADB003233074AA2FB03231B
:103A78005B099BB203F007039BB223449BB21A462F
:103A8800D7F8FC309A6007E11F85EB51D7F8F8307A
:103A98000022C7F8A830C7F8AC20D7E92A894246DF
:103AA8004B46911839625B417B62D7E9082341464E
:103AB8005418494643EB01054FF000024FF000034C
:103AC800EB0043EA5473E20014461D464346E318EC
:103AD800C7F8A0304B4645EB0303C7F8A430D7F826
:103AE800F0300022C7F89830C7F89C204FF0000249
:103AF8004FF00003D7E9264529468B00214643EAC3
:103B0800917321468A00D7E92801FCF759FB024640
:103B18000B46644BA3FB02235B099BB21B019CB2BF
:103B2800D7F8F8300022C7F89030C7F89420D7E9C2
:103B3800248942464B469118B9615B41FB61D7E93C
:103B4800062341465118396149464B417B614FF084
:103B580000024FF00003D7E904AB5946CB005146A9
:103B680043EA51735146CA00104619460346424675
:103B78009B18C7F888304B460A4642EB0303C7F840
:103B88008C30D7F8F0300022C7F88030C7F884208E
:103B98004FF000024FF00003D7E9208949468B0017
:103BA800414643EA917341468A00D7E92201FCF76E
:103BB80007FB02460B463B4BA3FB02135B09642140
:103BC80001FB03F3D31A1B013233364AA2FB03234A
:103BD8005B099BB203F0F0039BB223449CB2D7F875
:103BE800F8300022BB67FA67D7E91E8942464B4680
:103BF8009118B9605B41FB60D7E90223414651182F
:103C0800396049464B417B604FF000024FF000039A
:103C1800D7E900AB5946CB00514643EA51735146A8
:103C2800CA0010461946034642469B183B674B4656
:103C38000A4642EB03037B67D7F8F0300022BB66E5
:103C4800FA664FF000024FF00003D7E91A89494697
:103C58008B00414643EA917341468A00D7E91C012B
:103C6800FCF7AEFA02460B460E4BA3FB02135B09A8
:103C7800642101FB03F3D31A1B013233094AA2FB67
:103C880003235B099BB203F00F039BB223449BB24F
:103C98001A46D7F8FC309A6000BF07F58077BD4612
:103CA800BDE8B08F1F85EB5180B588B000AF786054
:103CB80039600123FB770023BB617868FFF78EFD2D
:103CC8000346002B5ED17B68DB6823F4164323F0A0
:103CD8000C033A6851683A68D26811433A68126925
:103CE80011433A6892690A431A437B68DA603B6871
:103CF8009B6819467868FFF785FD3B685B6919463C
:103D08007868FFF792FD07F108031846FFF79CFC57
:103D18007B681F4A934202D17B69BB6121E07B68C3
:103D28001C4A934202D13B69BB611AE07B681A4A7C
:103D3800934202D13B69BB6113E07B68174A934207
:103D480002D17B69BB610CE07B68154A934202D1C2
:103D58003B69BB6105E07B68124A934201D13B692C
:103D6800BB61BB69002B0DD03B681B68002B09D0D9
:103D78000023FB773B689A693B681B68B9697868D8
:103D8800FFF766FDFB7F18462037BD4680BD00BFA4
:103D98000010014000440040004800400014014069
:103DA800004C00400050004084B080B584B000AFA3
:103DB800786007F11C0080E80E003B6B012B22D1D4
:103DC8007B689B6B23F480327B689A637B68DB6833
:103DD80023F4840323F040037A68D3607B68DB68AC
:103DE80023F440127B68DA60FB6C012B05D17B68F9
:103DF800DB6843F480127B68DA60786801F03EFC87
:103E08000346FB731AE07B68DB6843F040027B687B
:103E1800DA60786801F032FC0346FB733B6C002BD8
:103E280006D17B689B6B43F480327B689A6305E01C
:103E38007B689B6B23F480327B689A63BB6A012B97
:103E48000BD17B689B6843F006027B689A607B68AD
:103E58009B6843F020027B689A60FB7B184610370A
:103E6800BD46BDE8804004B07047000080B487B00C
:103E780000AFF860B9601346FB71FB79022B65D17E
:103E8800BB68414A934206D9BB68404A934202D272
:103E98000F237B6162E0BB683C4A934206D3BB6850
:103EA8003B4A934202D20E237B6157E0BB68384AF3
:103EB800934206D3BB68374A934202D20D237B61F3
:103EC8004CE0BB68334A934206D3BB68324A9342FC
:103ED80002D80C237B6141E0BB682F4A934206D984
:103EE800BB682E4A934202D80B237B6136E0BB683D
:103EF8002A4A934206D9BB68294A934202D80A2320
:103F08007B612BE0BB68264A934206D9BB68254AE9
:103F1800934202D209237B6120E0BB68214A934285
:103F280006D3BB68204A934202D808237B6115E078
:103F3800BB681D4A934206D9BB681C4A934202D209
:103F480007237B610AE006237B6107E0FB79002BEE
:103F580002D109237B6101E009237B61FB68DB68EF
:103F680023F47052FB68DA60FB68DA687B699B02AD
:103F780003F470531A43FB68DA60002318461C37B1
:103F8800BD465DF8047B7047BFACD800C0E1E400D3
:103F98000024F400807306019F491A01FF2C3101A7
:103FA8003FA44C0100366E011FABA6010048E80192
:103FB80080B483B000AF78607B689B6843F00102EF
:103FC8007B689A60002318460C37BD465DF8047B71
:103FD800704780B483B000AF78607B689B6823F03B
:103FE80001027B689A60002318460C37BD465DF8CD
:103FF800047B704780B584B000AF78600B46FB70D7
:104008000023FB607B68DB6823F0C0427B68DA60D2
:10401800FB78012B15D17B68DB6843F000527B6885
:10402800DA600120FCF76CFFFB680133FB607868FD
:1040380001F094FA0346012B1ED0FB68312BF0D90E
:104048001AE0FB78002B15D17B68DB6843F08042CF
:104058007B68DA600120FCF753FFFB680133FB60E3
:10406800786801F07BFA0346002B05D0FB68312BFA
:10407800F0D901E0012305E0FB68322B01D10123CF
:1040880000E0002318461037BD4680BD84B080B5D7
:1040980086B000AF786007F1240080E80E000023A6
:1040A800FB757B68FB6000233B6109E07A683B692C
:1040B80040339B00134400225A603B6901333B6143
:1040C8003B690E2BF2D9FB6C002B1CD1FB6803F566
:1040D80000635B68FA6802F5006243F0020353600C
:1040E8007B689B6B43F400127B689A637B689B6BCD
:1040F80023F400227B689A637B689B6B23F48022FD
:104108007B689A630BE07B689B6B23F400127B68E7
:104118009A637B689B6B43F400227B689A63FB6815
:1041280003F560631A4600231360FB6803F5006318
:104138001946FB6803F500631A460B681360BB6BEE
:10414800012B0CD1FB6A002B04D10021786800F008
:1041580065F908E00121786800F060F903E00321BF
:10416800786800F05BF91021786800F0F3F80346EE
:10417800002B01D00123FB75786800F01FF9034676
:10418800002B01D00123FB75FB6803F500631A4679
:1041980000231361FB6803F500631A46002353618B
:1041A800FB6803F500631A460023D36100233B61D3
:1041B80043E03B695A01FB68134403F510631B682D
:1041C80003F00043B3F1004F18D13B69002B0AD12B
:1041D8003B695A01FB68134403F510631A464FF014
:1041E8000063136013E03B695A01FB68134403F54D
:1041F80010631A464FF09043136008E03B695A0178
:10420800FB68134403F510631A46002313603B69E7
:104218005A01FB68134403F510631A46002313611F
:104228003B695A01FB68134403F510631A464FF6BD
:104238007F3393603B6901333B617B6A3A699A42F9
:10424800B7D300233B6143E03B695A01FB68134441
:1042580003F530631B6803F00043B3F1004F18D136
:104268003B69002B0AD13B695A01FB68134403F5EB
:1042780030631A464FF00063136013E03B695A013C
:10428800FB68134403F530631A464FF090431360FC
:1042980008E03B695A01FB68134403F530631A468A
:1042A800002313603B695A01FB68134403F530632C
:1042B8001A46002313613B695A01FB68134403F54E
:1042C80030631A464FF67F3393603B6901333B6195
:1042D8007B6A3A699A42B7D3FB6803F500631B69A6
:1042E800FA6802F5006223F4807313617B68002288
:1042F8009A617B686FF080425A613B6B002B05D155
:104308007B689B6943F010027B689A617B689A69B5
:104318000F4B13437A689361FB6B002B05D07B68C6
:104328009B6943F008027B689A61FB6C012B07D1FB
:104338007B689B6943F0804343F004037A68936188
:10434800FB7D18461837BD46BDE8804004B070476D
:1043580000383C8080B485B000AF786039600023B5
:10436800FB60FB680133FB60FB68134A934201D989
:1043780003231BE07B681B69002BF2DA0023FB6038
:104388003B689B0143F020027B681A61FB6801339C
:10439800FB60FB68084A934201D9032306E07B6867
:1043A8001B6903F02003202BF0D000231846143794
:1043B800BD465DF8047B7047400D030080B485B0AE
:1043C80000AF78600023FB60FB680133FB60FB688B
:1043D800114A934201D9032318E07B681B69002B1B
:1043E800F2DA0023FB607B6810221A61FB68013354
:1043F800FB60FB68084A934201D9032306E07B6807
:104408001B6903F01003102BF0D000231846143753
:10441800BD465DF8047B7047400D030080B485B04D
:1044280000AF78600B46FB707B68FB60FB6803F5A8
:1044380000631A68FB78F96801F5006113430B60A3
:10444800002318461437BD465DF8047B704780B4D6
:1044580087B000AF78607B683B613B6903F5006318
:104468009B6803F00603FB60FB68002B02D1002366
:10447800FB750AE0FB68022B02D0FB68062B02D111
:104488000223FB7501E00F23FB75FB7D18461C37E3
:10449800BD465DF8047B704780B485B000AF786096
:1044A80039607B68FB603B681B78BB603B685B7866
:1044B800012B3AD1FB6803F50063DA693B681B7886
:1044C80003F00F03012101FA03F39BB2F96801F528
:1044D80000611343CB61BB685A01FB68134403F5C1
:1044E80010631B6803F40043002B55D1BB685A01C5
:1044F800FB68134403F510631A683B68DB68C3F371
:104508000A013B681B799B041943BB689B050B4355
:104518001343BA685101FA680A4402F5106243F07D
:10452800805343F40043136036E0FB6803F50063EF
:10453800DA693B681B7803F00F03012101FA03F3E2
:104548001B04F96801F500611343CB61BB685A018C
:10455800FB68134403F530631B6803F40043002B26
:104568001AD1BB685A01FB68134403F530631A6813
:104578003B68DB68C3F30A013B681B799B040B4368
:104588001343BA685101FA680A4402F5306243F0ED
:10459800805343F400431360002318461437BD4684
:1045A8005DF8047B7047000080B485B000AF786088
:1045B80039607B68FB603B681B78BB603B685B7855
:1045C800012B61D1BB685A01FB68134403F51063E2
:1045D8001B6803F00043B3F1004F1FD1BB685A01B9
:1045E800FB68134403F510631B68BA685101FA6845
:1045F8000A4402F5106243F000631360BB685A0175
:10460800FB68134403F510631B68BA685101FA6824
:104618000A4402F5106243F080431360FB6803F517
:104628000063DA6B3B681B7803F00F03012101FA82
:1046380003F39BB2DB43F96801F500611340CB63D8
:10464800FB6803F50063DA693B681B7803F00F0326
:10465800012101FA03F39BB2DB43F96801F500611C
:104668001340CB61BB685A01FB68134403F5106320
:104678001A68BB685901FB680B4403F510631946B7
:10468800354B13400B6060E0BB685A01FB6813446C
:1046980003F530631B6803F00043B3F1004F1FD1EB
:1046A800BB685A01FB68134403F530631B68BA689A
:1046B8005101FA680A4402F5306243F0006313605E
:1046C800BB685A01FB68134403F530631B68BA687A
:1046D8005101FA680A4402F5306243F080431360DE
:1046E800FB6803F50063DA6B3B681B7803F00F0384
:1046F800012101FA03F31B04DB43F96801F50061AA
:104708001340CB63FB6803F50063DA693B681B78E9
:1047180003F00F03012101FA03F31B04DB43F968DB
:1047280001F500611340CB61BB685A01FB68134473
:1047380003F530631A68BB685901FB680B4403F53D
:1047480030631946054B13400B6000231846143795
:10475800BD465DF8047B7047007833EC0078F3EFD2
:1047680080B58AB002AFF860B9601346FB71FB6888
:10477800FB61BB681B78BB61BB685B78012B40F0B1
:104788005C81BB689B69002B32D1BB695A01FB690C
:10479800134403F510631B69BA695101FA690A44A5
:1047A80002F5106223F0FF5323F4C0131361BB69B1
:1047B8005A01FB69134403F510631B69BA69510177
:1047C800FA690A4402F5106243F400231361BB69D5
:1047D8005A01FB69134403F510631B69BA69510157
:1047E800FA690A4402F51062DB0CDB04136174E019
:1047F800BB695A01FB69134403F510631B69BA6965
:104808005101FA690A4402F51062DB0CDB041361FA
:10481800BB695A01FB69134403F510631B69BA6944
:104828005101FA690A4402F5106223F0FF5323F498
:10483800C0131361BB695A01FB69134403F5106384
:104848001A69BB689969BB68DB680B44591EBB6869
:10485800DB68B1FBF3F3D9049D4B0B40B969480100
:10486800F969014401F5106113430B61BB695A01F1
:10487800FB69134403F510631A69BB689B69C3F3AA
:104888001203B9694801F969014401F5106113433C
:104898000B61BB681B79012B1FD1BB695A01FB69EE
:1048A800134403F510631B69BA695101FA690A4494
:1048B80002F5106223F0C0431361BB695A01FB691A
:1048C800134403F510631B69BA695101FA690A4474
:1048D80002F5106243F000531361FB79012B4BD1B1
:1048E800BB685B69002B09D0BB695A01FB6913449B
:1048F80003F510631A46BB685B695361BB681B7993
:10490800012B28D1FB6903F500639B6803F48073CE
:10491800002B10D1BB695A01FB69134403F51063DE
:104928001B68BA695101FA690A4402F5106243F03A
:10493800005313600FE0BB695A01FB69134403F588
:1049480010631B68BA695101FA690A4402F51062DA
:1049580043F080531360BB695A01FB69134403F5A4
:1049680010631B68BA695101FA690A4402F51062BA
:1049780043F00443136033E1BB695A01FB691344F4
:1049880003F510631B68BA695101FA690A4402F514
:10499800106243F004431360BB681B79012B15D0E8
:1049A800BB689B69002B00F01B81FB6903F5006362
:1049B8005A6BBB681B7803F00F03012101FA03F35C
:1049C800F96901F5006113434B6309E1FB6903F5DC
:1049D80000639B6803F48073002B10D1BB695A01F4
:1049E800FB69134403F510631B68BA695101FA693E
:1049F8000A4402F5106243F0005313600FE0BB69EC
:104A08005A01FB69134403F510631B68BA69510125
:104A1800FA690A4402F5106243F080531360BB68D8
:104A28001969BB681A78BB689B6998B2FB790093CF
:104A38000346F86800F0DEFAD2E0BB695A01FB6968
:104A4800134403F530631B69BA695101FA690A44D2
:104A580002F53062DB0CDB041361BB695A01FB69A8
:104A6800134403F530631B69BA695101FA690A44B2
:104A780002F5306223F0FF5323F4C0131361BB68BF
:104A88009B69002B26D1BB695A01FB69134403F5C6
:104A980030631A69BB68DB68C3F31203B96948015C
:104AA800F969014401F5306113430B61BB695A018F
:104AB800FB69134403F530631B69BA695101FA694C
:104AC8000A4402F5306243F4002313613AE000BF60
:104AD8000000F81FBB689A69BB68DB6813445A1E5C
:104AE800BB68DB68B2FBF3F3FB82BB68DB68FA8A5E
:104AF80003FB02F2BB68DA61BB695A01FB69134424
:104B080003F530631A69FB8AD904384B0B40B9693D
:104B18004801F969014401F5306113430B61BB6930
:104B28005A01FB69134403F530631A69BB68DB69F2
:104B3800C3F31203B9694801F969014401F5306109
:104B480013430B61FB79012B0DD1BB681B69002B4B
:104B580009D0BB681969BB695A01FB69134403F59D
:104B680030630A465A61BB681B79012B28D1FB695F
:104B780003F500639B6803F48073002B10D1BB69B5
:104B88005A01FB69134403F530631B68BA69510184
:104B9800FA690A4402F5306243F0005313600FE0EB
:104BA800BB695A01FB69134403F530631B68BA6992
:104BB8005101FA690A4402F5306243F080531360E8
:104BC800BB695A01FB69134403F530631B68BA6972
:104BD8005101FA690A4402F5306243F00443136054
:104BE800002318462037BD4680BD00BF0000F81FCF
:104BF80080B487B000AFF860B9601346FB71FB68FA
:104C08007B61BB681B783B61BB685B78012B40F01C
:104C1800CE80BB689B69002B32D13B695A017B6906
:104C2800134403F510631B693A6951017A690A4410
:104C380002F5106223F0FF5323F4C01313613B699C
:104C48005A017B69134403F510631B693A695101E2
:104C58007A690A4402F5106243F4002313613B6940
:104C68005A017B69134403F510631B693A695101C2
:104C78007A690A4402F51062DB0CDB0413614EE02A
:104C88003B695A017B69134403F510631B693A6950
:104C980051017A690A4402F51062DB0CDB041361E6
:104CA8003B695A017B69134403F510631B693A6930
:104CB80051017A690A4402F5106223F0FF5323F484
:104CC800C0131361BB689A69BB68DB689A4203D951
:104CD800BB68DA68BB689A613B695A017B6913440F
:104CE80003F510631B693A6951017A690A4402F5B0
:104CF800106243F4002313613B695A017B69134432
:104D080003F510631A69BB689B69C3F31203396919
:104D180048017969014401F5106113430B61FB797E
:104D2800012B1ED1BB685B69002B09D03B695A0176
:104D38007B69134403F510631A46BB685B695361CA
:104D48003B695A017B69134403F510631B683A6990
:104D580051017A690A4402F5106243F00443136072
:104D680097E03B695A017B69134403F510631B689C
:104D78003A6951017A690A4402F5106243F0044322
:104D88001360BB689B69002B00F083807B6903F587
:104D980000635A6BBB681B7803F00F03012101FA0B
:104DA80003F3796901F5006113434B6371E03B69D3
:104DB8005A017B69134403F530631B693A69510151
:104DC8007A690A4402F53062DB0CDB0413613B6943
:104DD8005A017B69134403F530631B693A69510131
:104DE8007A690A4402F5306223F0FF5323F4C013B2
:104DF8001361BB689B69002B03D0BB68DA68BB688A
:104E08009A61BB68DA68BB68DA613B695A017B69F9
:104E1800134403F530631B693A6951017A690A44FE
:104E280002F5306243F4002313613B695A017B6940
:104E3800134403F530631A69BB68DB69C3F31203D3
:104E4800396948017969014401F5306113430B61FF
:104E5800FB79012B0DD1BB681B69002B09D0BB68FE
:104E680019693B695A017B69134403F530630A46A3
:104E78005A613B695A017B69134403F530631B6827
:104E88003A6951017A690A4402F5306243F00443F1
:104E98001360002318461C37BD465DF8047B704735
:104EA80080B487B000AF786039600023FB600023CE
:104EB800FB757B683B613B685B78012B4AD13B689B
:104EC8001B785A013B69134403F510631B6803F010
:104ED8000043B3F1004F40F086803B681B785A01CD
:104EE8003B69134403F510631B683A681278510153
:104EF8003A690A4402F5106243F0006313603B68A4
:104F08001B785A013B69134403F510631B683A6820
:104F1800127851013A690A4402F5106243F080435D
:104F28001360FB680133FB60FB6842F21072934226
:104F380002D90123FB7556E03B681B785A013B698F
:104F4800134403F510631B6803F00043B3F1004FEB
:104F5800E7D048E03B681B785A013B69134403F5E6
:104F680030631B6803F00043B3F1004F3BD13B684B
:104F78001B785A013B69134403F530631B683A6890
:104F8800127851013A690A4402F5306243F000632D
:104F980013603B681B785A013B69134403F530637F
:104FA8001B683A68127851013A690A4402F530627E
:104FB80043F080431360FB680133FB60FB6842F2F7
:104FC8001072934202D90123FB750CE03B681B78F1
:104FD8005A013B69134403F530631B6803F000432F
:104FE800B3F1004FE7D0FB7D18461C37BD465DF88E
:104FF800047B704780B489B000AFF860B96011468F
:105008001A460B46FB711346BB80FB687B61BB6885
:10501800FB6197F82830002B23D1BB8803339B080A
:105028003B610023BB6118E0FB791A037B691344D9
:1050380003F580531A46FB691B681360FB6901334B
:10504800FB61FB690133FB61FB690133FB61FB69B0
:105058000133FB61BB690133BB61BA693B699A42A1
:10506800E2D3002318462437BD465DF8047B704719
:1050780080B48BB000AFF860B9601346FB80FB6862
:10508800BB61BB687B62FB889B089BB27B61FB882A
:1050980003F00303FB8300233B6214E0BB6903F5C1
:1050A80080531A687B6A1A607B6A01337B627B6A69
:1050B80001337B627B6A01337B627B6A01337B62EB
:1050C8003B6A01333B623A6A7B699A42E6D3FB8BBF
:1050D800002B1ED000233B62BB6903F580531A46A0
:1050E80007F1100312681A603A693B6ADBB2DB0009
:1050F80022FA03F3DAB27B6A1A703B6A01333B6225
:105108007B6A01337B62FB8B013BFB83FB8B002BB0
:10511800EAD17B6A18462C37BD465DF8047B704798
:1051280080B485B000AF786039607B68FB603B680D
:105138001B78BB603B685B78012B2CD1BB685A019C
:10514800FB68134403F510631B68002B12DBBB6874
:10515800002B0FD0BB685A01FB68134403F510639A
:105168001B68BA685101FA680A4402F5106223F014
:1051780080431360BB685A01FB68134403F510634E
:105188001B68BA685101FA680A4402F5106243F4D0
:10519800001313602BE0BB685A01FB68134403F546
:1051A80030631B68002B12DBBB68002B0FD0BB6879
:1051B8005A01FB68134403F530631B68BA68510150
:1051C800FA680A4402F5306223F080431360BB6832
:1051D8005A01FB68134403F530631B68BA68510130
:1051E800FA680A4402F5306243F40013136000239E
:1051F80018461437BD465DF8047B704780B485B007
:1052080000AF786039607B68FB603B681B78BB60E7
:105218003B685B78012B28D1BB685A01FB681344B3
:1052280003F510631B68BA685101FA680A4402F56D
:10523800106223F4001313603B681B79032B03D01F
:105248003B681B79022B38D1BB685A01FB681344B1
:1052580003F510631B68BA685101FA680A4402F53D
:10526800106243F08053136027E0BB685A01FB6863
:10527800134403F530631B68BA685101FA680A449D
:1052880002F5306223F4001313603B681B79032B8B
:1052980003D03B681B79022B0FD1BB685A01FB680E
:1052A800134403F530631B68BA685101FA680A446D
:1052B80002F5306243F08053136000231846143718
:1052C800BD465DF8047B704780B586B000AF786056
:1052D8007B683B6100237B6116E07B695A013B696F
:1052E800134403F510631A464FF67F3393607B69C6
:1052F8005A013B69134403F530631A464FF67F336E
:1053080093607B6901337B617B690E2BE5D93B692F
:1053180003F500631A46002313613B6903F5006334
:105328001A46002353613B6903F500631A460023BC
:10533800D3617868FFF742F80346FB73FB7B002BC9
:1053480001D0FB7B0BE010217868FFF703F80346D8
:10535800FB73FB7B002B01D0FB7B00E0FB7B18463B
:105368001837BD4680BD80B485B000AF78600B4665
:10537800FB707B68FB60FB6803F500631B68FA68D9
:1053880002F5006223F4FE631360FB6803F5006313
:105398001A68FB781B0103F4FE63F96801F50061E4
:1053A80013430B60002318461437BD465DF8047B91
:1053B800704780B485B000AF78607B68FB60FB689D
:1053C80003F560631B68FA6802F5606223F0030363
:1053D8001360FB6803F500635B68FA6802F5006216
:1053E80023F002035360002318461437BD465DF8C6
:1053F800047B704780B485B000AF78607B68FB6041
:10540800FB6803F560631B68FA6802F5606223F0C5
:1054180003031360FB6803F500635B68FA6802F531
:10542800006243F002035360002318461437BD4658
:105438005DF8047B704780B485B000AF78607B6806
:105448005B69FB607B689B69FA681340FB60FB68DB
:1054580018461437BD465DF8047B704780B485B0A4
:1054680000AF78607B68FB60FB6803F500639B69AD
:10547800BB60FB6803F50063DB69BA681340BB6077
:10548800BB681B0C18461437BD465DF8047B704793
:1054980080B485B000AF78607B68FB60FB6803F57B
:1054A80000639B69BB60FB6803F50063DB69BA684E
:1054B8001340BB60BB689BB218461437BD465DF805
:1054C800047B704780B485B000AF78600B46FB70F2
:1054D8007B68FB60FB785A01FB68134403F5306373
:1054E8009B68BB60FB6803F500635B69BA6813409F
:1054F800BB60BB6818461437BD465DF8047B70472F
:1055080080B487B000AF78600B46FB707B687B6126
:105518007B6903F500631B693B617B6903F50063E5
:105528005B6BFB60FB7803F00F03FA6822FA03F366
:10553800DB01DBB23A6913433B61FB785A017B69B3
:10554800134403F510639B683A691340BB60BB685A
:1055580018461C37BD465DF8047B704780B483B09D
:1055680000AF78607B685B6903F0010318460C376D
:10557800BD465DF8047B704780B485B000AF7860A5
:105588007B68FB60FB6803F510631B68FA6802F52B
:10559800106223F4FF6323F007031360FB6803F52D
:1055A80000635B68FA6802F5006243F48073536035
:1055B800002318461437BD465DF8047B7047000089
:1055C80080B487B000AFF8600B467A60FB72FB6866
:1055D8007B61FB683C3304331B683B613B69264AAB
:1055E80093420AD97B6903F530631B6803F00043D3
:1055F800B3F1004F01D1002337E07B6903F5306335
:105608001A46002313617B6903F530631B697A69C5
:1056180002F5306243F4002313617B6903F53063BC
:105628001B697A6902F5306243F0180313617B69DC
:1056380003F530631B697A6902F5306243F0C043B1
:105648001361FB7A012B0FD17B6903F530631A468E
:105658007B6853617B6903F530631B687A6902F5DF
:10566800306243F080231360002318461C37BD4680
:105678005DF8047B704700BF0A30544F80B485B092
:1056880000AF78600023FB60FB680133FB60FB68B8
:10569800134A934201D903231BE07B681B69002B43
:1056A800F2DA0023FB607B681B6943F001027B6828
:1056B8001A61FB680133FB60FB68094A934201D910
:1056C800032306E07B681B6903F00103012BF0D07C
:1056D800002318461437BD465DF8047B704700BFA9
:1056E800400D030080B483B000AF7860044A7B6843
:1056F800136000BF0C37BD465DF8047B704700BFE0
:105708000000002080B586B000AFF860B96013468D
:10571800FB71FB68002B01D1032325E0FB68D3F85C
:10572800B832002B03D0FB680022C3F8B822FB680C
:10573800D3F8CC32002B03D0FB680022C3F8CC226C
:10574800BB68002B03D0FB68BA68C3F8B422FB68B7
:10575800012283F89C22FB68FA791A70F86803F032
:10576800B1FA0346FB75FB7D18461837BD4680BD68
:1057780080B584B000AF78607B68012283F89C22F2
:105788007B68D3F8B832002B09D07B68D3F8B832DD
:105798005B687A685268D2B21146786898477B6825
:1057A800D3F8CC32002B03D07B680022C3F8CC227C
:1057B800786803F03DFB0346FB73FB7B002B01D0AD
:1057C800FB7B05E0786803F0CFFA0346FB73FB7BAD
:1057D80018461037BD4680BD80B584B000AF7860EC
:1057E80039600023FB813B68002B01D1032310E0C3
:1057F8007B683A68C3F8B8227B68D3F8B832DB6AAA
:1058080007F10E021046984702467B68C3F8CC227F
:10581800002318461037BD4680BD80B582B000AF62
:105828007860786803F0D2FA034618460837BD4610
:1058380080BD80B483B000AF7860002318460C3771
:10584800BD465DF8047B704780B584B000AF7860D2
:105858000B46FB700323FB737B68D3F8B832002B2D
:1058680009D07B68D3F8B8321B68FA781146786893
:1058780098470346FB73FB7B18461037BD4680BD2F
:1058880080B582B000AF78600B46FB707B68D3F8B8
:10589800B832002B07D07B68D3F8B8325B68FA7847
:1058A800114678689847002318460837BD4680BDDA
:1058B80080B584B000AF786039607B6803F2AA23B2
:1058C8003968184600F065FF7B680122C3F8942206
:1058D8007B68B3F8B0321A467B68C3F898227B68B5
:1058E80093F8AA3203F01F03022B1AD0022B22D8F6
:1058F800002B02D0012B0AD01DE07B6803F2AA23FB
:105908001946786800F018FA0346FB7320E07B68B4
:1059180003F2AA231946786800F07CFA0346FB7361
:1059280016E07B6803F2AA231946786800F0BAFAF1
:105938000346FB730CE07B6893F8AA3223F07F03DD
:10594800DBB21946786803F019FB0346FB7300BF06
:10595800FB7B18461037BD4680BD80B586B000AFCA
:10596800F8600B467A60FB72FB7A002B37D1FB6834
:1059780003F5AA733B61FB68D3F89432032B4AD131
:105988003B699A683B69DB689A4213D93B699A6814
:105998003B69DB68D21A3B699A603B69DA683B6904
:1059A8009B68934228BF13461A467968F86800F046
:1059B800C7FF30E0FB68D3F8B8321B69002B0AD068
:1059C800FB6893F89C32032B05D1FB68D3F8B832F7
:1059D8001B69F8689847F86800F0C3FF1BE0FB688C
:1059E800D3F8B8329B69002B13D0FB6893F89C322C
:1059F800032B0ED1FB68D3F8B8329B69FA7A1146AB
:105A0800F86898470346FB75FB7D002B03D0FB7DA8
:105A180002E0032300E0002318461837BD4680BD86
:105A280080B586B000AFF8600B467A60FB72FB7AEF
:105A3800002B6AD1FB6814333B61FB68D3F89432BE
:105A4800022B55D13B699A683B69DB689A4214D9A5
:105A58003B699A683B69DB68D21A3B699A603B6983
:105A68009B681A467968F86800F059FF00230022FD
:105A78000021F86803F088FB3AE03B69DA683B6983
:105A88009B689A421CD13B695A683B69DB689A4219
:105A980016D33B695A68FB68D3F898329A420FD2FA
:105AA80000220021F86800F03AFFFB680022C3F8E2
:105AB8009822002300220021F86803F065FB17E014
:105AC800FB68D3F8B832DB68002B0AD0FB6893F880
